S00E00005450315F4D532E7372656342
S11300000C9434000C943E000C943E000C943E007E
S11300100C943E000C943E000C943E000C943E0064
S11300200C943E000C943E000C943E000C943E0054
S11300300C943E000C943E000C943E000C943E0044
S11300400C943E000C943E000C943E000C943E0034
S11300500C943E000C943E000C943E000C943E0024
S11300600C943E000C943E0011241FBECFEFD8E048
S1130070DEBFCDBF0E9440000C94AD000C94000084
S11300808FEF8AB984B1886184B987B18C7F87B9CD
S113009088B1836088B961E091E041E081E099230F
S11300A011F0309990E091110BC0309909C0833060
S11300B021F08F5F91E041E003C091E041E081E0F5
S11300C0319B04C025B1277E25B90DC055B1282F19
S11300D030E0220F331F220F331F220F331F352F1F
S11300E0377E232B25B9823061F08330B1F0813023
S11300F049F5411103C02BB1209501C02AEA2BB95F
S113010021C0411105C05F9905C02BB1220F03C066
S113011021E001C021E02BB915C0442319F020E8E7
S11301202BB908C0662319F02BB1269502C02BB158
S1130130220F2BB9589903C05F9B04C002C060E032
S113014001C061E02FEF31EE44E0215030404040E7
S1110150E1F700C0000040E0A2CFF894FFCF1A
S9030000FC
