S00E00005450315F4D532E7372656342
S11300000C9434000C943E000C943E000C943E007E
S11300100C943E000C943E000C943E000C943E0064
S11300200C943E000C943E000C943E000C943E0054
S11300300C943E000C943E000C943E000C943E0044
S11300400C943E000C943E000C943E000C943E0034
S11300500C943E000C943E000C943E000C943E0024
S11300600C943E000C943E0011241FBECFEFD8E048
S1130070DEBFCDBF0E9440000C94A8000C94000089
S11300808FEF8AB987B18E7F87B988B1816088B9CB
S113009021E040E050E081E090E002C081E090E0A7
S11300A08130910521F08230910599F149C0452BA9
S11300B0C1F43AEA3BB93FEF41EE54E031504040DD
S11300C05040E1F700C000001BB86FEF71EE34E060
S11300D0615070403040E1F700C0000041E050E062
S11300E02FC035E53BB94FEF51EE64E0415050402D
S11300F06040E1F700C000001BB87FEF31EE44E040
S1130100715030404040E1F700C0000040E050E052
S113011017C02BB96FEF71EE34E06150704030407E
S1130120E1F700C000001BB86FEF71EE34E06150DE
S113013070403040E1F700C00000220F09F421E0D4
S11301403099AECF0196843091050CF0A7CFA8CF9B
S1070150F894FFCF4D
S9030000FC
