:100000000C9454000C9471000C9471000C947100C9
:100010000C9471000C9471000C9471000C9471009C
:100020000C9471000C9471000C9471000C9471008C
:100030000C9471000C9471000C947B040C9471006E
:100040000C9471000C9471000C9471000C9471006C
:100050000C9471000C9471000C9471000C9471005C
:100060000C9471000C947100001F000000001F0030
:10007000001F101010101F00001F181818181F0064
:10008000001F1C1C1C1C1F00001F1E1E1E1E1F000C
:10009000001F1F1F1F1F1F0003070F1F0F07030055
:1000A000181C1E1F1E1C180011241FBECFEFD8E005
:1000B000DEBFCDBF12E0A0E0B1E0E4EDF0E102C0B0
:1000C00005900D92A031B107D9F722E0A0E1B2E08E
:1000D00001C01D92A032B207E1F70E944E040C94B9
:1000E00068080C94000082E084BD83E085BD89EF40
:1000F00087BDEEE6F0E08081826080837894089589
:1001000065B1982F9074492F50E0559547955595B6
:1001100047955595479555954795982F9078292F50
:1001200030E0022E232F000C221F330B000C221F65
:10013000331F962F997F492B242B25B968B1982F0F
:100140009071492F50E05595479555954795559590
:100150004795982F9072292F30E035952795359542
:10016000279535952795962F997F492B242B28B9CC
:100170009BB192609BB99BB191609BB925ED2A958B
:10018000F1F700009BB19E7F9BB99BB19D7F9BB90E
:1001900095ED9A95F1F7000065B120E1829FC001CD
:1001A0001124AC01407455275595479555954795B1
:1001B00055954795559547959C0120783327022EF4
:1001C000232F000C221F330B000C221F331F362F4E
:1001D000397F432B242B25B948B19C01207133274B
:1001E00035952795359527953595279580729927CB
:1001F000959587959595879595958795942F997F52
:10020000292B822B88B98BB182608BB98BB181602D
:100210008BB985ED8A95F1F700008BB18E7F8BB994
:100220008BB18D7F8BB995ED9A95F1F7000008950C
:1002300065B1982F9074492F50E055954795559585
:1002400047955595479555954795982F9078292F1F
:1002500030E0022E232F000C221F330B000C221F34
:10026000331F962F997F492B242B25B968B1982FDE
:100270009071492F50E0559547955595479555955F
:100280004795982F9072292F30E035952795359511
:10029000279535952795962F997F492B242B28B99B
:1002A0009BB191609BB9EFE9FFE03197F1F700C096
:1002B00000009BB19E7F9BB9EFE9FFE03197F1F71A
:1002C00000C0000065B1F0E18F9FC0011124AC01B6
:1002D000407455275595479555954795559547959C
:1002E000559547959C0120783327022E232F000C2B
:1002F000221F330B000C221F331F362F397F432B55
:10030000242B25B948B19C012071332735952795B9
:1003100035952795359527958072992795958795D9
:100320009595879595958795942F997F292B822B65
:1003300088B98BB181608BB98FE99FE00197F1F7A4
:1003400000C000008BB18E7F8BB9EFE9FFE03197E1
:10035000F1F700C00000089581E00E94180108959F
:1003600082E00E94180108950F931F93CF93DF93AB
:10037000009769F0D62F8C01C0E007C0F801EC0FA0
:10038000F11D80810E948000CF5FCD17B8F3DF910F
:10039000CF911F910F910895623031F0633031F0A9
:1003A000613029F4805C03C08C5E01C08C5A806887
:1003B0000E9418010895EF92FF920F931F93CF931D
:1003C000DF937C01862F90E0880F991F880F991F7B
:1003D000880F991F8064C0E0D0E00DC0F701EC0FDA
:1003E000FD1F149101E0080F0E941801812F0E9447
:1003F00080002196802FC830D10580F3DF91CF9106
:100400001F910F91FF90EF900895CF93DF938FE5A9
:100410009AEE0197F1F700C0000085B1897F85B998
:1004200088B1897F88B91BB884B1866084B987B1E7
:10043000866087B98AB183608AB985B1897F85B9B9
:1004400088B1866088B98BB181608BB98FE99FE0F4
:100450000197F1F700C000008BB18E7F8BB98FE957
:100460009FE00197F1F700C0000085B1897F85B951
:1004700088B1866088B98BB181608BB98FE99FE0C4
:100480000197F1F700C000008BB18E7F8BB98FE927
:100490009FE00197F1F700C0000085B1897F85B921
:1004A00088B1897F846088B98BB181608BB98FE90D
:1004B0009FE00197F1F700C000008BB18E7F8BB9F0
:1004C0008FE99FE00197F1F700C0000088E20E94E9
:1004D00018018CE00E94180160E0C0E00AC0D1E081
:1004E000D60F8C2F90E088599F4F0E94DB01C85F88
:1004F0006D2FC034A0F3DF91CF9108950E940502C3
:100500000E94AC010E94B001089585B1896185B94E
:100510008BB180688BB980E046C0813051F028F003
:10052000823059F0833069F00FC095B19F7E95B944
:100530000BC095B1977F95B907C095B19E7F95B9CE
:1005400003C09BB19F779BB94B9903C0880F880F5D
:1005500008954D9904C0880F880F8F5F08954C99B6
:1005600004C0880F880F8E5F08954A9904C0880FD1
:10057000880F8D5F0895813051F028F0823059F056
:10058000833069F00FC095B1906195B90BC095B1FA
:10059000986095B907C095B1916095B903C09BB1BA
:1005A00090689BB98F5F843008F4B7CF8FEF0895C0
:1005B000CF93DF93EC010E9485028F3F31F480934B
:1005C00005018093040180E010C09091050189131A
:1005D00009C090910401891729F088838093040150
:1005E00081E003C08093050180E0DF91CF91089501
:1005F00084B1896184B98AB180688AB98AB1837CFF
:100600008AB98BB18C638BB908950F931F93CF93E5
:100610008C01C62F0E941A056C2F70E00E9497046F
:10062000FC01EE0FFF1FE00FF11F80819181CF9140
:100630001F910F910895109216020895EF92FF9264
:100640000F931F93CF93DF93CDB7DEB764970FB6A9
:10065000F894DEBF0FBECDBF7C01162F809116022D
:10066000823009F46AC028F4882351F08130B1F156
:1006700008C1833009F4B4C0843009F4D1C001C189
:100680006CE088E391E00E94B40161E080E00E94A8
:10069000CC016AE085E491E00E94B4011A3209F0CD
:1006A000F0C086E0E3E7F1E0A7E1B2E001900D924F
:1006B0008A95E1F711E010931F0283E080931E02F8
:1006C00010921D0269E186E091E00E94050390937B
:1006D00013028093120210931602D3C080911F025E
:1006E000882389F00E94AC0160E080E00E94CC0188
:1006F00065E080911202909113020E94B401109261
:100700001F02F7011082F7018081823009F0B9C021
:10071000809316020E94AC0110921D0210921402E6
:1007200060E080E00E94CC0165E087E192E00E94F9
:10073000B40181E080931F02A4C0633289F08FEC82
:10074000860F883008F09DC080911402880F982F82
:10075000990F990F890F180F10531093140291C01D
:1007600080911D02E0911202F0911302E80FF11D39
:10077000908120911402921319C0E82FF0E0E95EF5
:10078000FD4F90838F5F80931D0260E00E94CC013B
:1007900080911D02E0911202F0911302E80FF11D09
:1007A00080810E948000109214020CC080911E0271
:1007B000815080931E02811105C083E08093160250
:1007C000F701108280911D02853009F05AC084E043
:1007D00080931602F701808180931502108251C028
:1007E00080911F028823A1F00E94AC016AE080E59D
:1007F00091E00E94B40161E080E00E94CC0165E0DC
:1008000080911202909113020E94B40110921F0273
:10081000F70180818530A9F510921602108231C04F
:1008200080911F02882331F10E94AC0167E089E5C5
:1008300091E00E94B40161E080E00E94CC018091CF
:1008400015021F928F9380E691E09F938F938E0104
:100850000F5F1F4F1F930F930E942A0564E1C80189
:100860000E94B40110921F020F900F900F900F90F2
:100870000F900F90F7018081853019F410921602C5
:10088000108264960FB6F894DEBF0FBECDBFDF9125
:10089000CF911F910F91FF90EF900895CF93DF9329
:1008A0001F92CDB7DEB70E941B030E9473000E9407
:1008B0007E020E94F8022FEF81EE94E021508040EA
:1008C0009040E1F700C00000CE0101960E94D802DE
:1008D000811102C08FEF8983698180E192E00E94DB
:1008E0001E032FEF80E792E0215080409040E1F717
:1008F00000C00000E9CF1F920F920FB60F92112493
:100900008F93809111028F5F809311028091110269
:10091000843639F410921102809110028F5F809317
:1009200010028F910F900FBE0F901F90189597FB9C
:10093000072E16F4009407D077FD09D00E94BA0460
:1009400007FC05D03EF4909581959F4F08957095D2
:1009500061957F4F0895A29FB001B39FC001A39FEF
:10096000700D811D1124911DB29F700D811D1124E8
:10097000911D0895AA1BBB1B51E107C0AA1FBB1FF5
:10098000A617B70710F0A61BB70B881F991F5A951B
:10099000A9F780959095BC01CD0108958F929F9203
:1009A000AF92BF92CF92DF92EF92FF92CF93DF93FD
:1009B000EC01688179818A819B81611571058105CE
:1009C000910521F464E279ED8BE597E02DE133EFB9
:1009D00041E050E00E94DD0749015A019B01AC0152
:1009E000A7EAB1E40E94FC076B017C01ACEEB4EF16
:1009F000A50194010E940A08DC01CB018C0D9D1D0C
:100A0000AE1DBF1DB7FF03C00197A109B048888381
:100A10009983AA83BB839F77DF91CF91FF90EF905B
:100A2000DF90CF90BF90AF909F908F9008950E94DD
:100A3000CE04089580E091E00E94CE040895A0E0E5
:100A4000B0E08093000190930101A0930201B09364
:100A500003010895AEE0B0E0E0E3F5E00C941D087A
:100A60000D891E8986E08C831A8309838FEF9FE7A7
:100A70009E838D83AE01475E5F4F6F89788DCE0177
:100A800001960E944C05EF81F885E00FF11F10825E
:100A90002E96E4E00C943908ABE0B0E0E2E5F5E036
:100AA0000C940F086C017B018A01FC0117821682ED
:100AB000838181FFCCC1CE0101963C01F601938177
:100AC000F70193FD859193FF81917F01882309F4BC
:100AD000BAC1853239F493FD859193FF81917F01ED
:100AE000853229F4B60190E00E944307E7CF912CAC
:100AF000212C312CFFE1F315D8F08B3279F038F44A
:100B0000803279F08332A1F4232D20611DC08D3213
:100B100061F0803369F4232D216016C0832D82603B
:100B2000382EE32DE4603E2E2AC0F32DF8601DC060
:100B300037FC2DC020ED280F2A3040F08E32B9F45A
:100B400036FC81C1232D2064322E19C036FE06C02A
:100B50008AE0989E200D1124922E11C0EAE02E9E6C
:100B6000200D1124222EF32DF0623F2E08C08C366A
:100B700021F4832D8068382E02C0883641F4F701B5
:100B800093FD859193FF81917F018111B3CF982FC0
:100B90009F7D9554933028F40C5F1F4F9FE39983FA
:100BA0000DC0833631F0833771F0833509F059C0B9
:100BB00021C0F801808189830E5F1F4F88248394B0
:100BC000912C530113C02801F2E04F0E511CF80183
:100BD000A080B18036FE03C0692D70E002C06FEFC7
:100BE0007FEFC5010E9438074C018201F32DFF778A
:100BF0003F2E16C0280122E0420E511CF801A080B1
:100C0000B18036FE03C0692D70E002C06FEF7FEF48
:100C1000C5010E942D074C01F32DF0683F2E820183
:100C200033FC1BC0822D90E088169906B0F4B60103
:100C300080E290E00E9443072A94F4CFF50137FC4C
:100C4000859137FE81915F01B60190E00E944307D4
:100C500021102A9421E0821A91088114910471F7DD
:100C6000E8C0843611F0893641F5F80137FE07C037
:100C700060817181828193810C5F1F4F08C0608108
:100C80007181072E000C880B990B0E5F1F4FF32DFF
:100C9000FF763F2E97FF09C09095809570956195DE
:100CA0007F4F8F4F9F4FF0683F2E2AE030E0A30127
:100CB0000E947F07882E861845C0853731F4232D82
:100CC0002F7EB22E2AE030E025C0932D997FB92ED9
:100CD0008F36C1F018F4883579F0B5C0803719F037
:100CE000883721F0B0C0E92FE061BE2EB4FE0DC000
:100CF000FB2DF460BF2E09C034FE0AC0292F2660E8
:100D0000B22E06C028E030E005C020E130E002C08D
:100D100020E132E0F801B7FE07C060817181828175
:100D200093810C5F1F4F06C06081718180E090E06D
:100D30000E5F1F4FA3010E947F07882E8618FB2D90
:100D4000FF773F2E36FE0DC0232D2E7FA22E891455
:100D500058F434FE0BC032FC09C0832D8E7EA82EC1
:100D600005C0B82CA32C03C0B82C01C0B92CA4FE1C
:100D70000FC0FE01E80DF11D8081803321F49A2D12
:100D8000997EA92E09C0A2FE06C0B394B39404C0F4
:100D90008A2D867809F0B394A3FC11C0A0FE06C08A
:100DA000B21488F4280C922C9B180EC0B21460F474
:100DB000B60180E290E00E944307B394F7CFB214EB
:100DC00018F42B1802C0982C212CA4FE10C0B601D8
:100DD00080E390E00E944307A2FE17C0A1FC03C07D
:100DE00088E790E002C088E590E0B6010CC08A2D4B
:100DF000867859F0A1FE02C08BE201C080E2A7FC18
:100E00008DE2B60190E00E944307891438F4B601E0
:100E100080E390E00E9443079A94F7CF8A94F3010D
:100E2000E80DF11D8081B60190E00E94430781101A
:100E3000F5CF222009F442CEB60180E290E00E9474
:100E400043072A94F6CFF6018681978102C08FEF7F
:100E50009FEF2B96E2E10C942B08FC01059061506A
:100E600070400110D8F7809590958E0F9F1F0895C0
:100E7000FC016150704001900110D8F78095909569
:100E80008E0F9F1F08950F931F93CF93DF93FB0146
:100E9000238121FD03C08FEF9FEF2CC022FF16C0DE
:100EA00046815781248135814217530744F4A0813C
:100EB000B1819D012F5F3F4F318320838C93268129
:100EC00037812F5F3F4F3783268314C08B01EC019E
:100ED000FB010084F185E02D0995892BE1F6D8010D
:100EE00016968D919C911797019617969C938E93C9
:100EF0001697CE01DF91CF911F910F910895FA01BE
:100F0000AA27283051F1203181F1E8946F936E7F48
:100F10006E5F7F4F8F4F9F4FAF4FB1E03ED0B4E039
:100F20003CD0670F781F891F9A1FA11D680F791F7A
:100F30008A1F911DA11D6A0F711D811D911DA11D8B
:100F400020D009F468943F912AE0269F112430199B
:100F5000305D3193DEF6CF010895462F4770405D36
:100F60004193B3E00FD0C9F7F6CF462F4F70405DE5
:100F70004A3318F0495D31FD4052419302D0A9F740
:100F8000EACFB4E0A6959795879577956795BA953A
:100F9000C9F700976105710508959B01AC010A2E00
:100FA00006945795479537952795BA95C9F7620FD7
:100FB000731F841F951FA01D0895052E97FB1EF417
:100FC00000940E94F40757FD07D00E94460807FCD2
:100FD00003D04EF40C94F40750954095309521952C
:100FE0003F4F4F4F5F4F0895909580957095619555
:100FF0007F4F8F4F9F4F08950E94AB04A59F900D88
:10100000B49F900DA49F800D911D11240895B7FFEA
:101010000C94FC070E94FC07821B930B08952F92EF
:101020003F924F925F926F927F928F929F92AF9278
:10103000BF92CF92DF92EF92FF920F931F93CF93C5
:10104000DF93CDB7DEB7CA1BDB0B0FB6F894DEBF5C
:101050000FBECDBF09942A88398848885F846E8482
:101060007D848C849B84AA84B984C884DF80EE80CC
:10107000FD800C811B81AA81B981CE0FD11D0FB6D5
:10108000F894DEBF0FBECDBFED010895A1E21A2E88
:10109000AA1BBB1BFD010DC0AA1FBB1FEE1FFF1F1C
:1010A000A217B307E407F50720F0A21BB30BE40B6C
:1010B000F50B661F771F881F991F1A9469F76095B3
:1010C0007095809590959B01AC01BD01CF0108956D
:0410D000F894FFCFC2
:1010D40001000000FFFF79017F0185018B0191016F
:1010E40097019D01A301A901AF01B501BB01C10194
:1010F400C701CD01D301D901DF01E501EB01F10104
:10110400F701FD01030209024269656E76656E69A5
:10111400646F21210050726573696F6E65202A0027
:10112400446572726F746121005341504545450016
:1011340047616E6173746520656E20256420736554
:101144006773002A2A2A2A2A004172626F6C0042BD
:101154006F746F6E004344794D4300436C61764570
:1011640000466163696C00476166617300486F6A99
:101174006173004C6942726F004C616E7A61004E7B
:101184006965766500506552726F0050656345531A
:10119400005069416E6F005072594B6500525545BD
:1011A40044610053455249450053616C55640053F2
:1011B400616C75640053696C6C61005465636C61A7
:1011C4000056616C6F7200566572646500596E4812
:1011D400527A0068415264440073696C6C61000087
:00000001FF
