S01700004763634170706C69636174696F6E312E737265635B
S11300000C9454000C9471000C9471000C947100C5
S11300100C9471000C9471000C9471000C94710098
S11300200C9471000C9471000C9471000C94710088
S11300300C9471000C9471000C9467040C9471007E
S11300400C9471000C9471000C9471000C94710068
S11300500C9471000C9471000C9471000C94710058
S11300600C9471000C947100001F000000001F002C
S1130070001F101010101F00001F181818181F0060
S1130080001F1C1C1C1C1F00001F1E1E1E1E1F0008
S1130090001F1F1F1F1F1F0003070F1F0F07030051
S11300A0181C1E1F1E1C180011241FBECFEFD8E001
S11300B0DEBFCDBF12E0A0E0B1E0E0EDFAE002C0A7
S11300C005900D92AE30B107D9F722E0AEE0B2E070
S11300D001C01D92A731B207E1F70E9427030C94D7
S11300E066050C94000085B1896185B98BB180687F
S11300F08BB980E046C0813051F028F0823059F04D
S1130100833069F00FC095B19F7E95B90BC095B14E
S1130110977F95B907C095B19E7F95B903C09BB1F0
S11301209F779BB94B9903C0880F880F08954D9909
S113013004C0880F880F8F5F08954C9904C0880FFE
S1130140880F8E5F08954A9904C0880F880F8D5FC9
S11301500895813051F028F0823059F0833069F0ED
S11301600FC095B1906195B90BC095B1986095B9E0
S113017007C095B1916095B903C09BB190689BB9D4
S11301808F5F843008F4B7CF8FEF0895CF93DF9358
S1130190EC010E9473008F3F31F48093050180933A
S11301A0040180E010C090910501891309C0909169
S11301B00401891729F088838093040181E003C036
S11301C08093050180E0DF91CF91089584B1896126
S11301D084B98AB180688AB98AB1837C8AB98BB1BF
S11301E08C638BB9089565B1982F9074492F50E0B2
S11301F055954795559547955595479555954795E3
S1130200982F9078292F30E0022E232F000C221FE4
S1130210330B000C221F331F962F997F492B242B5D
S113022025B968B1982F9071492F50E0559547959D
S11302305595479555954795982F9072292F30E0FD
S1130240359527953595279535952795962F997F3B
S1130250492B242B28B99BB192609BB99BB1916027
S11302609BB925ED2A95F1F700009BB19E7F9BB9C0
S11302709BB19D7F9BB995ED9A95F1F7000065B10F
S113028020E1829FC0011124AC014074552755958B
S113029047955595479555954795559547959C018F
S11302A020783327022E232F000C221F330B000C3F
S11302B0221F331F362F397F432B242B25B948B1F6
S11302C09C012071332735952795359527953595CC
S11302D027958072992795958795959587959595F6
S11302E08795942F997F292B822B88B98BB18260B3
S11302F08BB98BB181608BB985ED8A95F1F70000DC
S11303008BB18E7F8BB98BB18D7F8BB995ED9A951F
S1130310F1F70000089565B1982F9074492F50E0CB
S113032055954795559547955595479555954795B1
S1130330982F9078292F30E0022E232F000C221FB3
S1130340330B000C221F331F962F997F492B242B2C
S113035025B968B1982F9071492F50E0559547956C
S11303605595479555954795982F9072292F30E0CC
S1130370359527953595279535952795962F997F0A
S1130380492B242B28B99BB191609BB9EFE9FFE07D
S11303903197F1F700C000009BB19E7F9BB9EFE954
S11303A0FFE03197F1F700C0000065B1F0E18F9FE5
S11303B0C0011124AC0140745527559547955595B6
S11303C0479555954795559547959C012078332732
S11303D0022E232F000C221F330B000C221F331F6D
S11303E0362F397F432B242B25B948B19C0120712A
S11303F0332735952795359527953595279580721B
S11304009927959587959595879595958795942F93
S1130410997F292B822B88B98BB181608BB98FE9A5
S11304209FE00197F1F700C000008BB18E7F8BB97C
S1130430EFE9FFE03197F1F700C00000089581E093
S11304400E948B01089582E00E948B0108950F930E
S11304501F93CF93DF93009769F0D62F8C01C0E0F0
S113046007C0F801EC0FF11D80810E94F300CF5FFB
S1130470CD17B8F3DF91CF911F910F91089562309A
S113048031F0633031F0613029F4805C03C08C5E5C
S113049001C08C5A80680E948B010895EF92FF92EC
S11304A00F931F93CF93DF937C01862F90E0880FE7
S11304B0991F880F991F880F991F8064C0E0D0E0AE
S11304C00DC0F701EC0FFD1F149101E0080F0E940D
S11304D08B01812F0E94F3002196802FC830D10513
S11304E080F3DF91CF911F910F91FF90EF900895CA
S11304F0CF93DF938FE59AEE0197F1F700C00000E8
S113050085B1897F85B988B1897F88B91BB884B1E1
S1130510866084B987B1866087B98AB183608AB9F5
S113052085B1897F85B988B1866088B98BB18160CE
S11305308BB98FE99FE00197F1F700C000008BB100
S11305408E7F8BB98FE99FE00197F1F700C000001F
S113055085B1897F85B988B1866088B98BB181609E
S11305608BB98FE99FE00197F1F700C000008BB1D0
S11305708E7F8BB98FE99FE00197F1F700C00000EF
S113058085B1897F85B988B1897F846088B98BB149
S113059081608BB98FE99FE00197F1F700C00000FB
S11305A08BB18E7F8BB98FE99FE00197F1F700C083
S11305B0000088E20E948B018CE00E948B0160E0C5
S11305C0C0E00AC0D1E0D60F8C2F90E088599F4F2D
S11305D00E944E02C85F6D2FC034A0F3DF91CF910B
S11305E008950E9478020E941F020E942302089527
S11305F00F931F93CF938C01C62F0E9402056C2F7B
S113060070E00E947F04FC01FF27EE0FFF1FE00F44
S1130610F11F80819181CF911F910F910895DC0189
S11306206031A0F4E62FF0E0E250FE4F9081933267
S113063069F080ED890F8A3048F48C91880F282F57
S1130640220F220F820F980F90539C930895CF93FB
S1130650DF931F92CDB7DEB70E945B0478940E94AB
S1130660F1022FEF83EC99E0215080409040E1F7B4
S113067000C000000E94E600809113028823E1F389
S113068010921302809110028F5F80931002909158
S11306901102923009F48BC030F4992359F091304F
S11306A009F441C0E9CF933009F4D1C0943009F47E
S11306B0E8C0E2CF8130D9F40E941F028FE39FE1AA
S11306C00197F1F700C000006CE08EE391E00E9416
S11306D0270261E080E00E943F026AE08BE491E03F
S11306E00E94270210920F0283E080933801CE010A
S11306F001960E94C600882371F0E981E03158F424
S1130700F0E0E250FE4F80818A3229F481E0809348
S113071011021092100280911002843108F4ACCFBF
S113072010921002A9CF8130E9F480913901882315
S1130730C9F00E941F029FEF20E782E09150204001
S11307408040E1F700C0000069E186E091E00E948A
S1130750F802909316028093150265E00E94270226
S11307601092390180911002843108F485CF809170
S11307703901811181CF0E941F029FEF20E782E09F
S1130780915020408040E1F700C000001092100218
S113079080910F02E0911502F0911602E80FF11D0D
S11307A080818093140282E08093110265CF80914E
S11307B00F02853008F060CFCE0101960E94C6007A
S11307C0882309F459CF69816031E0F5E62FF0E020
S11307D0E250FE4F80818332A9F590910E02809100
S11307E01402981759F08091380181508093380190
S11307F081110BC083E08093110207C080910F0226
S1130800853019F484E08093110280910F028F5F88
S113081080930F0210920E021092100260E08F5F1C
S11308200E943F02809114020E94F30080910F0203
S1130830E0911502F0911602E80FF11D808180937A
S113084014021ACF8EE092E00E940F0315CF81307C
S113085069F40E941F028FE39FE10197F1F700C042
S1130860000068E086E591E00E9427028091100272
S1130870843120F0109211021092100210920F0293
S1130880FBCE813069F40E941F028FE39FE1019740
S1130890F1F700C0000068E08FE591E00E942702B4
S11308A080911002843120F01092110210921002F3
S11308B010920F02E1CE82E084BD83E085BD89EF12
S11308C087BDEEE6F0E080818260808308951F9208
S11308D00F920FB60F9211248F93809112028F5FA3
S11308E080931202883C28F01092120281E08093D7
S11308F013028F910F900FBE0F901F90189597FBC6
S1130900072E16F4009407D077FD09D00E94A204A4
S113091007FC05D03EF4909581959F4F08957095FE
S113092061957F4F0895A29FB001B39FC001A39F1B
S1130930700D811D1124911DB29F700D811D112414
S1130940911D0895AA1BBB1B51E107C0AA1FBB1F21
S1130950A617B70710F0A61BB70B881F991F5A9547
S1130960A9F780959095BC01CD0108958F929F922F
S1130970AF92BF92CF92DF92EF92FF92CF93DF9329
S1130980EC01688179818A819B81611571058105FA
S1130990910521F464E279ED8BE597E02DE133EFE5
S11309A041E050E00E94120549015A019B01AC014B
S11309B0A7EAB1E40E9431056B017C01ACEEB4EF0F
S11309C0A50194010E943F05DC01CB018C0D9D1D06
S11309D0AE1DBF1DB7FF03C00197A109B0488883AE
S11309E09983AA83BB839F77DF91CF91FF90EF9088
S11309F0DF90CF90BF90AF909F908F9008950E940A
S1130A00B604089580E091E00E94B6040895A0E041
S1130A10B0E08093000190930101A0930201B09390
S1130A2003010895052E97FB1EF400940E942905E6
S1130A3057FD07D00E94440507FC03D04EF40C94E4
S1130A40290550954095309521953F4F4F4F5F4F65
S1130A50089590958095709561957F4F8F4F9F4F26
S1130A6008950E949304A59F900DB49F900DA49F98
S1130A70800D911D11240895B7FF0C9431050E9437
S1130A803105821B930B0895A1E21A2EAA1BBB1BEE
S1130A90FD010DC0AA1FBB1FEE1FFF1FA217B30746
S1130AA0E407F50720F0A21BB30BE40BF50B661F5C
S1130AB0771F881F991F1A9469F760957095809520
S1130AC090959B01AC01BD01CF010895F894FFCF2F
S1130AD001000000FFFF68016E0174017A018001CA
S1130AE086018C01920198019E01A401AA01B00122
S1130AF0B601BC01C201C801CE01D401DA01E00192
S1130B00E601EC01F201F801030131003900426908
S1130B10656E76656E69646F212100507265736934
S1130B206F6E65202A00506572646973746500569F
S1130B306963746F726961004172626F6C00426F25
S1130B40746F6E004344794D4300436C61764500F5
S1130B50466163696C00476166617300486F6A614E
S1130B6073004C6942726F004C616E7A61004E6989
S1130B7065766500506552726F0050656345530099
S1130B805069416E6F005072594B6500525545448F
S1130B90610053455249450053616C5564005361EB
S1130BA06C75640053696C6C61005465636C61001E
S1130BB056616C6F7200566572646500596E4852D6
S1130BC07A0068415264440073696C6C610031328C
S1110BD0334134353642373839432A30234412
S9030000FC
