:100000000C9454000C9471000C9471000C947100C9
:100010000C9471000C9471000C9471000C9471009C
:100020000C9471000C9471000C9471000C9471008C
:100030000C9471000C9471000C9480000C9471006D
:100040000C9471000C9471000C9471000C9471006C
:100050000C9471000C9471000C9471000C9471005C
:100060000C9471000C947100001F000000001F0030
:10007000001F101010101F00001F181818181F0064
:10008000001F1C1C1C1C1F00001F1E1E1E1E1F000C
:10009000001F1F1F1F1F1F0003070F1F0F07030055
:1000A000181C1E1F1E1C180011241FBECFEFD8E005
:1000B000DEBFCDBF12E0A0E0B1E0EAECF1E102C0AA
:1000C00005900D92A432B107D9F722E0A4E2B2E084
:1000D00001C01D92AC33B207E1F70E94EC040C940E
:1000E000E3080C94000082E084BD85E085BD8BE9C7
:1000F00087BDEEE6F0E08081826080837894089589
:100100001F920F920FB60F9211248F9380912402A9
:100110008F5F8093240281E08093250280912402E6
:10012000843639F410922402809126028F5F8093E6
:1001300026028F910F900FBE0F901F90189565B1FA
:10014000982F9074492F50E05595479555954795B0
:100150005595479555954795982F9078292F30E0DC
:10016000022E232F000C221F330B000C221F331FE3
:10017000962F997F492B242B25B968B1982F907120
:10018000492F50E055954795559547955595479575
:10019000982F9072292F30E0359527953595279522
:1001A00035952795962F997F492B242B28B99BB1FC
:1001B00092609BB99BB191609BB925ED2A95F1F7AF
:1001C00000009BB19E7F9BB99BB19D7F9BB995ED34
:1001D0009A95F1F7000065B120E1829FC0011124DA
:1001E000AC014074552755954795559547955595BC
:1001F0004795559547959C0120783327022E232F4C
:10020000000C221F330B000C221F331F362F397FA7
:10021000432B242B25B948B19C01207133273595F8
:10022000279535952795359527958072992795952A
:1002300087959595879595958795942F997F292BE7
:10024000822B88B98BB182608BB98BB181608BB9FD
:1002500085ED8A95F1F700008BB18E7F8BB98BB15C
:100260008D7F8BB995ED9A95F1F70000089565B1F2
:10027000982F9074492F50E055954795559547957F
:100280005595479555954795982F9078292F30E0AB
:10029000022E232F000C221F330B000C221F331FB2
:1002A000962F997F492B242B25B968B1982F9071EF
:1002B000492F50E055954795559547955595479544
:1002C000982F9072292F30E03595279535952795F1
:1002D00035952795962F997F492B242B28B99BB1CB
:1002E00091609BB9EFE9FFE03197F1F700C00000A2
:1002F0009BB19E7F9BB9EFE9FFE03197F1F700C01A
:10030000000065B1F0E18F9FC0011124AC01407481
:100310005527559547955595479555954795559525
:1003200047959C0120783327022E232F000C221F93
:10033000330B000C221F331F362F397F432B242B06
:1003400025B948B19C0120713327359527953595FE
:100350002795359527958072992795958795959539
:10036000879595958795942F997F292B822B88B90E
:100370008BB181608BB98FE99FE00197F1F700C0E5
:1003800000008BB18E7F8BB9EFE9FFE03197F1F779
:1003900000C00000089581E00E943701089582E0C6
:1003A0000E94370108950F931F93CF93DF93009717
:1003B00069F0D62F8C01C0E007C0F801EC0FF11DE9
:1003C00080810E949F00CF5FCD17B8F3DF91CF915E
:1003D0001F910F910895623031F0633031F0613038
:1003E00029F4805C03C08C5E01C08C5A80680E9436
:1003F00037010895EF92FF920F931F93CF93DF93EE
:100400007C01862F90E0880F991F880F991F880F15
:10041000991F8064C0E0D0E00DC0F701EC0FFD1F14
:10042000149101E0080F0E943701812F0E949F0064
:100430002196802FC830D10580F3DF91CF911F9195
:100440000F91FF90EF900895CF93DF938FE59AEE91
:100450000197F1F700C0000085B1897F85B988B1A7
:10046000897F88B91BB884B1866084B987B18660FA
:1004700087B98AB183608AB985B1897F85B988B126
:10048000866088B98BB181608BB98FE99FE0019755
:10049000F1F700C000008BB18E7F8BB98FE99FE030
:1004A0000197F1F700C0000085B1897F85B988B157
:1004B000866088B98BB181608BB98FE99FE0019725
:1004C000F1F700C000008BB18E7F8BB98FE99FE000
:1004D0000197F1F700C0000085B1897F85B988B127
:1004E000897F846088B98BB181608BB98FE99FE087
:1004F0000197F1F700C000008BB18E7F8BB98FE9B7
:100500009FE00197F1F700C0000088E20E943701E8
:100510008CE00E94370160E0C0E00AC0D1E0D60F55
:100520008C2F90E088599F4F0E94FA01C85F6D2F71
:10053000C034A0F3DF91CF9108950E9424020E945D
:10054000CB010E94CF01089585B1896185B98BB136
:1005500080688BB980E04AC0813051F028F0823049
:1005600059F0833069F00FC095B19F7E95B90BC0EB
:1005700095B1977F95B907C095B19E7F95B903C096
:100580009BB19F779BB995E39A95F1F700004B9942
:1005900003C0880F880F08954D9904C0880F880FF5
:1005A0008F5F08954C9904C0880F880F8E5F08955F
:1005B0004A9904C0880F880F8D5F0895813051F0EB
:1005C00028F0823059F0833069F00FC095B1906106
:1005D00095B90BC095B1986095B907C095B1916078
:1005E00095B903C09BB190689BB98F5F843008F4C4
:1005F000B3CF8FEF0895CF93DF93EC010E94A40255
:10060000E82FF0E0E65CFE4F80818F3F31F480936D
:1006100005018093040180E010C0909105018913C9
:1006200009C090910401891729F0888380930401FF
:1006300081E003C08093050180E0DF91CF910895B0
:1006400084B1896184B98AB180688AB98AB1837CAE
:100650008AB985B1896185B98BB18C638BB90895ED
:100660000F931F93CF938C01C62F0E9495056C2F7B
:1006700070E00E941205FC01EE0FFF1FE00FF11F5A
:1006800080819181CF911F910F91089510922C023A
:1006900008950F931F93CF93DF93CDB7DEB7649781
:1006A0000FB6F894DEBF0FBECDBF10922502909119
:1006B0002C02923009F4A2C030F4992359F0913001
:1006C00009F459C07EC1933009F40FC1943009F484
:1006D0003AC177C1909107019923C9F00E94CB01DB
:1006E0008FE39CE90197F1F700C000006CE08AE419
:1006F00091E00E94D30161E080E00E94EB016AE09A
:1007000087E591E00E94D301109207015AC18A3215
:1007100009F057C180910601882371F020912602CB
:100720008091240290E034E6239F800D911D1124D6
:100730000E949A051092060186E0E1E8F1E0ADE240
:10074000B2E001900D928A95E1F781E080933B023F
:1007500093E090933A021092270280932C028093A8
:10076000070169E188E091E00E943003909329023B
:100770008093280226C180913B028823D1F00E94F9
:10078000CB018FEF9FEC27E0815090402040E1F7B4
:1007900000C0000060E080E00E94EB0165E0809115
:1007A0002802909129020E94D30110923B021092DC
:1007B000260280912602823009F003C180932C0228
:1007C0000E94CB011092270210922A0287E0E7E8EC
:1007D000F1E0A3E3B2E001900D928A95E1F7109267
:1007E000260260E080E00E94EB0165E08DE292E08D
:1007F0000E94D30181E080933B02E3C0833289F001
:1008000090ED980F9A3008F066C090912A02990FE7
:10081000292F220F220F920F890F805380932A02D3
:100820005AC080912702E0912802F0912902E80F36
:10083000F11D908120912A0292131BC0E82FF0E055
:10084000E35DFD4F908360E00E94EB018091270201
:10085000E0912802F0912902E80FF11D80810E94A9
:100860009F00809127028F5F8093270210922A02B7
:1008700025C080913A02815080933A02811105C0CF
:1008800093E090932C0210922602823031F4E3E33D
:10089000F2E080E2808381830FC0813031F4E3E3B2
:1008A000F2E080E28283838307C0811105C0E3E325
:1008B000F2E080E28483858310922A0280912702ED
:1008C000853049F484E080932C0280912602809345
:1008D0002B021092260261E089E00E94EB0166E0A3
:1008E00083E392E00E94D3016CC080913B02882395
:1008F00001F10E94CB013FEF8FEC97E03150804037
:100900009040E1F700C0000068E082E691E00E94BC
:10091000D30161E080E00E94EB0165E08091280254
:10092000909129020E94D30110923B02109226025C
:1009300048C080912602853009F043C010922C02F5
:10094000109226023EC080913B02882391F10E94C2
:10095000CB012FEF3FEC87E0215030408040E1F7A2
:1009600000C0000069E08BE691E00E94D30161E0E5
:1009700080E00E94EB0180912B021F928F9385E70C
:1009800091E09F938F938E010F5F1F4F1F930F93E3
:100990000E94A5056BE0C8010E94D30110923B02A2
:1009A000109226020F900F900F900F900F900F90C3
:1009B00008C080912602853021F410922C021092FA
:1009C000260264960FB6F894DEBF0FBECDBFDF914E
:1009D000CF911F910F910895CF93DF931F92CDB7C1
:1009E000DEB70E9473000E949D020E9420030E94B5
:1009F00046032FEF81EE94E0215080409040E1F7D4
:100A000000C00000809125028823E1F3CE01019609
:100A10000E94FB02811102C08FEF898389810E94AD
:100A20004903F0CF97FB072E16F4009407D077FD0B
:100A300009D00E94350507FC05D03EF490958195BC
:100A40009F4F0895709561957F4F0895A29FB001C3
:100A5000B39FC001A39F700D811D1124911DB29FF2
:100A6000700D811D1124911D0895AA1BBB1B51E11E
:100A700007C0AA1FBB1FA617B70710F0A61BB70B0E
:100A8000881F991F5A95A9F780959095BC01CD01B3
:100A900008958F929F92AF92BF92CF92DF92EF9282
:100AA000FF92CF93DF93EC01688179818A819B81EA
:100AB000611571058105910521F464E279ED8BE5FD
:100AC00097E02DE133EF41E050E00E9458084901E2
:100AD0005A019B01AC01A7EAB1E40E9477086B01BF
:100AE0007C01ACEEB4EFA50194010E948508DC0105
:100AF000CB018C0D9D1DAE1DBF1DB7FF03C001971F
:100B0000A109B04888839983AA83BB839F77DF912B
:100B1000CF91FF90EF90DF90CF90BF90AF909F90DC
:100B20008F9008950E944905089580E091E00E9409
:100B300049050895A0E0B0E0809300019093010181
:100B4000A0930201B09303010895AEE0B0E0EBEA98
:100B5000F5E00C9498080D891E8986E08C831A8331
:100B600009838FEF9FE79E838D83AE01475E5F4FC2
:100B70006F89788DCE0101960E94C705EF81F885B7
:100B8000E00FF11F10822E96E4E00C94B408ABE065
:100B9000B0E0EDECF5E00C948A086C017B018A0171
:100BA000FC0117821682838181FFCCC1CE010196A0
:100BB0003C01F6019381F70193FD859193FF8191AB
:100BC0007F01882309F4BAC1853239F493FD8591F8
:100BD00093FF81917F01853229F4B60190E00E9454
:100BE000BE07E7CF912C212C312CFFE1F315D8F073
:100BF0008B3279F038F4803279F08332A1F4232DEE
:100C000020611DC08D3261F0803369F4232D216095
:100C100016C0832D8260382EE32DE4603E2E2AC05C
:100C2000F32DF8601DC037FC2DC020ED280F2A30B1
:100C300040F08E32B9F436FC81C1232D2064322E6F
:100C400019C036FE06C08AE0989E200D1124922E0F
:100C500011C0EAE02E9E200D1124222EF32DF06209
:100C60003F2E08C08C3621F4832D8068382E02C0B8
:100C7000883641F4F70193FD859193FF81917F01BF
:100C80008111B3CF982F9F7D9554933028F40C5F3A
:100C90001F4F9FE399830DC0833631F0833771F086
:100CA000833509F059C021C0F801808189830E5F26
:100CB0001F4F88248394912C530113C02801F2E024
:100CC0004F0E511CF801A080B18036FE03C0692D83
:100CD00070E002C06FEF7FEFC5010E94B3074C01C7
:100CE0008201F32DFF773F2E16C0280122E0420E2D
:100CF000511CF801A080B18036FE03C0692D70E060
:100D000002C06FEF7FEFC5010E94A8074C01F32DD1
:100D1000F0683F2E820133FC1BC0822D90E08816C4
:100D20009906B0F4B60180E290E00E94BE072A94D2
:100D3000F4CFF50137FC859137FE81915F01B60153
:100D400090E00E94BE0721102A9421E0821A9108A7
:100D50008114910471F7E8C0843611F0893641F5A9
:100D6000F80137FE07C060817181828193810C5F39
:100D70001F4F08C060817181072E000C880B990BF2
:100D80000E5F1F4FF32DFF763F2E97FF09C0909502
:100D90008095709561957F4F8F4F9F4FF0683F2EE4
:100DA0002AE030E0A3010E94FA07882E861845C089
:100DB000853731F4232D2F7EB22E2AE030E025C076
:100DC000932D997FB92E8F36C1F018F4883579F0BC
:100DD000B5C0803719F0883721F0B0C0E92FE06145
:100DE000BE2EB4FE0DC0FB2DF460BF2E09C034FE34
:100DF0000AC0292F2660B22E06C028E030E005C0C8
:100E000020E130E002C020E132E0F801B7FE07C087
:100E100060817181828193810C5F1F4F06C0608168
:100E2000718180E090E00E5F1F4FA3010E94FA07DE
:100E3000882E8618FB2DFF773F2E36FE0DC0232D02
:100E40002E7FA22E891458F434FE0BC032FC09C048
:100E5000832D8E7EA82E05C0B82CA32C03C0B82CE1
:100E600001C0B92CA4FE0FC0FE01E80DF11D808168
:100E7000803321F49A2D997EA92E09C0A2FE06C0C6
:100E8000B394B39404C08A2D867809F0B394A3FC7C
:100E900011C0A0FE06C0B21488F4280C922C9B1836
:100EA0000EC0B21460F4B60180E290E00E94BE076A
:100EB000B394F7CFB21418F42B1802C0982C212C3D
:100EC000A4FE10C0B60180E390E00E94BE07A2FE1F
:100ED00017C0A1FC03C088E790E002C088E590E05D
:100EE000B6010CC08A2D867859F0A1FE02C08BE2B3
:100EF00001C080E2A7FC8DE2B60190E00E94BE072F
:100F0000891438F4B60180E390E00E94BE079A94F9
:100F1000F7CF8A94F301E80DF11D8081B60190E0CE
:100F20000E94BE078110F5CF222009F442CEB601FF
:100F300080E290E00E94BE072A94F6CFF6018681F7
:100F4000978102C08FEF9FEF2B96E2E10C94A608E9
:100F5000FC010590615070400110D8F78095909584
:100F60008E0F9F1F0895FC01615070400190011089
:100F7000D8F7809590958E0F9F1F08950F931F931C
:100F8000CF93DF93FB01238121FD03C08FEF9FEF00
:100F90002CC022FF16C0468157812481358142171B
:100FA000530744F4A081B1819D012F5F3F4F3183EE
:100FB00020838C93268137812F5F3F4F3783268391
:100FC00014C08B01EC01FB010084F185E02D099533
:100FD000892BE1F6D80116968D919C911797019671
:100FE00017969C938E931697CE01DF91CF911F9108
:100FF0000F910895FA01AA27283051F1203181F18B
:10100000E8946F936E7F6E5F7F4F8F4F9F4FAF4F10
:10101000B1E03ED0B4E03CD0670F781F891F9A1F23
:10102000A11D680F791F8A1F911DA11D6A0F711DD7
:10103000811D911DA11D20D009F468943F912AE0E3
:10104000269F11243019305D3193DEF6CF010895CB
:10105000462F4770405D4193B3E00FD0C9F7F6CFFC
:10106000462F4F70405D4A3318F0495D31FD4052C4
:10107000419302D0A9F7EACFB4E0A695979587955A
:1010800077956795BA95C9F7009761057105089539
:101090009B01AC010A2E06945795479537952795E5
:1010A000BA95C9F7620F731F841F951FA01D08957D
:1010B000052E97FB1EF400940E946F0857FD07D081
:1010C0000E94C10807FC03D04EF40C946F085095A1
:1010D0004095309521953F4F4F4F5F4F0895909524
:1010E0008095709561957F4F8F4F9F4F08950E9417
:1010F0002605A59F900DB49F900DA49F800D911D76
:1011000011240895B7FF0C9477080E947708821B7A
:10111000930B08952F923F924F925F926F927F921E
:101120008F929F92AF92BF92CF92DF92EF92FF92F7
:101130000F931F93CF93DF93CDB7DEB7CA1BDB0BA3
:101140000FB6F894DEBF0FBECDBF09942A88398848
:1011500048885F846E847D848C849B84AA84B9844F
:10116000C884DF80EE80FD800C811B81AA81B9815B
:10117000CE0FD11D0FB6F894DEBF0FBECDBFED016F
:101180000895A1E21A2EAA1BBB1BFD010DC0AA1FC8
:10119000BB1FEE1FFF1FA217B307E407F50720F0E0
:1011A000A21BB30BE40BF50B661F771F881F991F5B
:1011B0001A9469F760957095809590959B01AC01A4
:0A11C000BD01CF010895F894FFCFA0
:1011CA0001000000FFFF01018E0194019A01A001B4
:1011DA00A601AC01B201B801BE01C401CA01D00125
:1011EA00D601DC01E201E801EE01F401FA01000294
:1011FA0006020C02120218021E0231323341343541
:10120A003642373839432A3023444269656E766557
:10121A006E69646F21210050726573696F6E652073
:10122A002A00446572726F74612100566963746F93
:10123A0072696121005469656D706F3A2025647383
:10124A00002A2A2A2A2A003C333C333C33004172C2
:10125A00626F6C00426F746F6E004344794D4300B5
:10126A00436C61764500466163696C00476166615B
:10127A007300486F6A6173004C6942726F004C6177
:10128A006E7A61004E6965766500506552726F002C
:10129A005065634553005069416E6F005072594B57
:1012AA006500525545446100534552494500536112
:1012BA006C55640053616C75640053696C6C610011
:1012CA005465636C610056616C6F72005665726496
:1012DA006500596E48527A00684152644400736945
:0412EA006C6C6100C7
:00000001FF
