:100000000C9454000C9471000C9471000C947100C9
:100010000C9471000C9471000C9471000C9471009C
:100020000C9471000C9471000C9471000C9471008C
:100030000C9471000C9471000C9484020C94710067
:100040000C9471000C9471000C9471000C9471006C
:100050000C9471000C9471000C9471000C9471005C
:100060000C9471000C947100001F000000001F0030
:10007000001F101010101F00001F181818181F0064
:10008000001F1C1C1C1C1F00001F1E1E1E1E1F000C
:10009000001F1F1F1F1F1F0003070F1F0F07030055
:1000A000181C1E1F1E1C180011241FBECFEFD8E005
:1000B000DEBFCDBF12E0A0E0B1E0E4EEF9E002C0A7
:1000C00005900D92AC30B107D9F722E0ACE0B2E078
:1000D00001C01D92A131B207E1F70E941C030C94EC
:1000E000F0040C94000065B1982F9074492F50E0F3
:1000F00055954795559547955595479555954795E8
:10010000982F9078292F30E0022E232F000C221FE9
:10011000330B000C221F331F962F997F492B242B62
:1001200025B968B1982F9071492F50E055954795A2
:100130005595479555954795982F9072292F30E002
:10014000359527953595279535952795962F997F40
:10015000492B242B28B99BB192609BB99BB191602C
:100160009BB925ED2A95F1F700009BB19E7F9BB9C5
:100170009BB19D7F9BB995ED9A95F1F7000065B114
:1001800020E1829FC0011124AC0140745527559590
:1001900047955595479555954795559547959C0194
:1001A00020783327022E232F000C221F330B000C44
:1001B000221F331F362F397F432B242B25B948B1FB
:1001C0009C012071332735952795359527953595D1
:1001D00027958072992795958795959587959595FB
:1001E0008795942F997F292B822B88B98BB18260B8
:1001F0008BB98BB181608BB985ED8A95F1F70000E1
:100200008BB18E7F8BB98BB18D7F8BB995ED9A9524
:10021000F1F70000089565B1982F9074492F50E0D0
:1002200055954795559547955595479555954795B6
:10023000982F9078292F30E0022E232F000C221FB8
:10024000330B000C221F331F962F997F492B242B31
:1002500025B968B1982F9071492F50E05595479571
:100260005595479555954795982F9072292F30E0D1
:10027000359527953595279535952795962F997F0F
:10028000492B242B28B99BB191609BB9EFE9FFE082
:100290003197F1F700C000009BB19E7F9BB9EFE959
:1002A000FFE03197F1F700C0000065B1F0E18F9FEA
:1002B000C0011124AC0140745527559547955595BB
:1002C000479555954795559547959C012078332737
:1002D000022E232F000C221F330B000C221F331F72
:1002E000362F397F432B242B25B948B19C0120712F
:1002F0003327359527953595279535952795807220
:100300009927959587959595879595958795942F98
:10031000997F292B822B88B98BB181608BB98FE9AA
:100320009FE00197F1F700C000008BB18E7F8BB981
:10033000EFE9FFE03197F1F700C00000089581E098
:100340000E940B01089582E00E940B0108950F9313
:100350001F93CF93DF93009769F0D62F8C01C0E0F5
:1003600007C0F801EC0FF11D80810E947300CF5F80
:10037000CD17B8F3DF91CF911F910F91089562309F
:1003800031F0633031F0613029F4805C03C08C5E61
:1003900001C08C5A80680E940B010895EF92FF9271
:1003A0000F931F93CF93DF937C01862F90E0880FEC
:1003B000991F880F991F880F991F8064C0E0D0E0B3
:1003C0000DC0F701EC0FFD1F149101E0080F0E9412
:1003D0000B01812F0E9473002196802FC830D10518
:1003E00080F3DF91CF911F910F91FF90EF900895CF
:1003F000CF93DF938FE59AEE0197F1F700C00000ED
:1004000085B1897F85B988B1897F88B91BB884B1E6
:10041000866084B987B1866087B98AB183608AB9FA
:1004200085B1897F85B988B1866088B98BB18160D3
:100430008BB98FE99FE00197F1F700C000008BB105
:100440008E7F8BB98FE99FE00197F1F700C0000024
:1004500085B1897F85B988B1866088B98BB18160A3
:100460008BB98FE99FE00197F1F700C000008BB1D5
:100470008E7F8BB98FE99FE00197F1F700C00000F4
:1004800085B1897F85B988B1897F846088B98BB14E
:1004900081608BB98FE99FE00197F1F700C0000000
:1004A0008BB18E7F8BB98FE99FE00197F1F700C088
:1004B000000088E20E940B018CE00E940B0160E0CA
:1004C000C0E00AC0D1E0D60F8C2F90E088599F4F32
:1004D0000E94CE01C85F6D2FC034A0F3DF91CF9191
:1004E00008950E94F8010E949F010E94A3010895AF
:1004F00082E084BD83E085BD89EF87BDEEE6F0E054
:1005000080818260808308951F920F920FB60F92B0
:1005100011248F9380910C028F5F80930C02883C92
:1005200028F010920C0281E080930F028F910F90BF
:100530000FBE0F901F90189585B1896185B98BB159
:1005400080688BB980E046C0813051F028F082305D
:1005500059F0833069F00FC095B19F7E95B90BC0FB
:1005600095B1977F95B907C095B19E7F95B903C0A6
:100570009BB19F779BB94B9903C0880F880F089553
:100580004D9904C0880F880F8F5F08954C9904C05F
:10059000880F880F8E5F08954A9904C0880F880FCE
:1005A0008D5F0895813051F028F0823059F083300A
:1005B00069F00FC095B1906195B90BC095B1986085
:1005C00095B907C095B1916095B903C09BB190688A
:1005D0009BB98F5F843008F4B7CF8FEF0895CF9326
:1005E000DF93EC010E949C028F3F31F48093050160
:1005F0008093040180E010C090910501891309C027
:1006000090910401891729F088838093040181E087
:1006100003C08093050180E0DF91CF91089584B1FC
:10062000896184B98AB180688AB98AB1837C8AB9C0
:100630008BB18C638BB90895CF93DF931F92CDB7A5
:10064000DEB70E94780278940E9471022FEF83EC4B
:1006500099E0215080409040E1F700C000000E94E6
:100660000F0380910F028823E1F310920F02809113
:100670000D028F5F80930D0290910E029130E1F197
:1006800038F0923009F493C0933009F4A9C0E9CF4F
:100690008130B1F40E949F018FE39FE10197F1F750
:1006A00000C000006CE08CE391E00E94A70161E0D3
:1006B00080E00E94BF016AE089E491E00E94A70106
:1006C000CE0101960E94EF02882371F0E981E031AA
:1006D00058F4F0E0E450FE4F80818A3229F481E042
:1006E00080930E0210920D0280910D02843108F465
:1006F000B8CF10920D02B5CF8130F9F480913B0153
:100700008823D9F00E949F018FE39FE10197F1F7C1
:1007100000C000000E948C0469E170E00E9409049E
:1007200080931002E82FF0E0EE0FFF1FEA5FFE4F0C
:1007300065E0808191810E94A70180910D02843142
:1007400050F080913A01882331F00E949F0110926D
:100750003A0110920D0280913A01811182CFCE01AF
:1007600001960E94EF02882309F47BCFE981E031F2
:1007700060F4F0E0E450FE4F80818A3231F483E08F
:1007800080930E0210920D026CCF809138019091EF
:10079000390101979093390180933801892B09F031
:1007A00060CF82E080930E0210920D025ACF81300A
:1007B00069F40E949F018FE39FE10197F1F700C068
:1007C000000068E084E591E00E94A70180910D029D
:1007D000843108F446CF10920E0210920D0241CFE0
:1007E000813069F40E949F018FE39FE10197F1F747
:1007F00000C0000068E08DE591E00E94A7018091B3
:100800000D02843108F42DCF10920E0210920D02C9
:1008100028CF97FB072E16F4009407D077FD09D058
:100820000E942C0407FC05D03EF4909581959F4FC3
:100830000895709561957F4F0895A29FB001B39F71
:10084000C001A39F700D811D1124911DB29F700DD9
:10085000811D1124911D0895AA1BBB1B51E107C0E6
:10086000AA1FBB1FA617B70710F0A61BB70B881F40
:10087000991F5A95A9F780959095BC01CD010895CF
:100880008F929F92AF92BF92CF92DF92EF92FF92A0
:10089000CF93DF93EC01688179818A819B81611517
:1008A00071058105910521F464E279ED8BE597E00E
:1008B0002DE133EF41E050E00E949C0449015A01D0
:1008C0009B01AC01A7EAB1E40E94BB046B017C016F
:1008D000ACEEB4EFA50194010E94C904DC01CB0188
:1008E0008C0D9D1DAE1DBF1DB7FF03C00197A10953
:1008F000B04888839983AA83BB839F77DF91CF9188
:10090000FF90EF90DF90CF90BF90AF909F908F902F
:1009100008950E944004089580E091E00E94400400
:100920000895A0E0B0E08093000190930101A093AE
:100930000201B09303010895052E97FB1EF4009465
:100940000E94B30457FD07D00E94CE0407FC03D0D9
:100950004EF40C94B30450954095309521953F4F3B
:100960004F4F5F4F089590958095709561957F4F9B
:100970008F4F9F4F08950E941D04A59F900DB49F17
:10098000900DA49F800D911D11240895B7FF0C9424
:10099000BB040E94BB04821B930B0895A1E21A2E94
:1009A000AA1BBB1BFD010DC0AA1FBB1FEE1FFF1F13
:1009B000A217B307E407F50720F0A21BB30BE40B63
:1009C000F50B661F771F881F991F1A9469F76095AA
:1009D0007095809590959B01AC01BD01CF01089564
:0409E000F894FFCFB9
:1009E40001000000FFFF66016C01720178017E01C5
:1009F40084018A01900196019C01A201A801AE0123
:100A0400B401BA01C001C601CC01D201D801DE0192
:100A1400E401EA01F001F601030001014269656E97
:100A240076656E69646F21210050726573696F6E1B
:100A340065202A00506572646973746500566963A1
:100A4400746F726961004172626F6C00426F746FFF
:100A54006E004344794D4300436C61764500466122
:100A640063696C00476166617300486F6A61730073
:100A74004C6942726F004C616E7A61004E69657612
:100A84006500506552726F005065634553005069AC
:100A9400416E6F005072594B6500525545446100D8
:100AA40053455249450053616C55640053616C755C
:100AB400640053696C6C61005465636C6100566139
:100AC4006C6F7200566572646500596E48527A0004
:100AD40068415264440073696C6C61003132334183
:0C0AE40034353642373839432A30234479
:00000001FF
