:100000000C943D000C943C0B0C943C0B0C943C0B5E
:100010000C943C0B0C943C0B0C943C0B0C943C0B44
:100020000C943C0B0C943C0B0C943C0B0C943C0B34
:100030000C943C0B0C943C0B0C943C0B0C943C0B24
:100040000C943C0B0C943C0B0C948F080C943C0BC4
:100050000C9409090C943C0B0C943C0B0C943C0B39
:100060000C943C0B0C943C0B010004028004020431
:100070001A001686041A0425800011241FBECFEF33
:10008000D8E0DEBFCDBFE8E6F0E040E017C0B591B4
:10009000A59135912591059107FD0CC0959185910C
:1000A000EF01F92FE82F05900D92A217B307D9F7AA
:1000B000FE0104C01D92A217B307E1F7E937F40768
:0E00C00031F70E94A1090C94000BF894FFCFB9
:1000CE004269656E76656E69646F0D0A436F6D6188
:1000DE006E646F733A200D0A313A20526F6A6F0DBB
:1000EE000A323A2056657264650D0A333A20417A17
:1000FE00756C0D0A343A204369616E0D0A353A204B
:10010E00416D6172696C6C6F0D0A363A204D6167F4
:10011E00656E74610D0A373A20426C616E636F0D25
:10012E000A383A204E6567726F0D0A0000436F6DF4
:10013E00616E646F206E6F207265636F6E6F6369A0
:10014E00646F0D0A00436F6C6F722063616D62699C
:0B015E0061646F20612025730D0A0012
:10016900526F6A6F00566572646500417A756C005A
:100179004369616E00416D6172696C6C6F004D611C
:1001890067656E746100426C616E636F004E6567EE
:03019900726F0082
:10019C00000101010001010100010000000001004B
:0801AC00010000000001010147
:1001B40068076C094C836A9074A07AC000806888D0
:0601C40000846C82008142
:0701CA00286E756C6C290022
:0601D100286E696C290094
:1001D800A3EAB0E0E2EFF0E00C940A0A4C015901FE
:1001E800C756DF4F488359836A83C959D040212CA9
:1001F800312C6E012BE8C20ED11C85E2782E260127
:1002080030E8632ECE018D569F4FC456DF4F998339
:100218008883CC59D0409C0140E8CF55DF4F2883D4
:1002280039834A83C15AD040C756DF4F4881C959DC
:10023800D040C656DF4F5881CA59D040C556DF4F07
:100248006881CB59D040FA01849167FD8081882369
:1002580009F4C9C3CF57DF4F19821882C158D0405B
:100268008FEF9FEFCD57DF4F99838883C358D040D6
:10027800CB57DF4F19821882C558D040A1E0B0E0B3
:10028800AC0FBD1FC957DF4FB983A883C758D040EB
:10029800E0E8F0E0C757DF4FF983E883C958D0405A
:1002A800CA01A62FE12CF12CFC012491A7FD208185
:1002B80021111BC0E114F10401F19701C4010E944E
:1002C8003D09C756DF4F88819981AA81C959D04015
:1002D8008E0D9F1DA11DF7FCAA95C756DF4F888379
:1002E8009983AA83C959D04008C00196A11D253217
:1002F80009F3FFEFEF1AFF0AD7CFC756DF4F888100
:100308009981AA81C959D040FC012491A7FD208177
:10031800253209F056C39C014A2F2F5F3F4F4F4F9C
:10032800C256DF4F288339834A83CE59D040C756F7
:10033800DF4F288339834A83C959D040C756DF4FD6
:1003480088819981AA81C959D040FC012491A7FDCF
:1003580020812B3241F4CF57DF4F28813981C15892
:10036800D04024600BC02C32CCF02D3259F5CF5739
:10037800DF4F28813981C158D0402160CF57DF4FE6
:1003880039832883C158D0400196A11DC756DF4F35
:1003980088839983AA83C959D040D0CF203241F4A9
:1003A800CF57DF4F28813981C158D0402860E6CF28
:1003B800233291F4CF57DF4F28813981C158D0407B
:1003C8002061DCCF203341F4CF57DF4F28813981BA
:1003D800C158D0402260D2CF2A3299F50196A11D8A
:1003E800C756DF4F88839983AA83C959D040D5015E
:1003F800ED91FC911197CF0102968D939C9380818A
:100408009181CB57DF4F99838883C558D04097FF98
:100418003EC0CF57DF4F28813981C158D040B1E065
:100428002B27CF57DF4F39832883C158D040919568
:1004380081959109CB57DF4F99838883C558D04060
:1004480026C0BC018A2F0E944708CB57DF4F9983EB
:100458008883C558D040C756DF4F288139814A81E3
:10046800C959D040F901849147FD8081082E000CBC
:10047800990BC0970A9758F42F5F3F4F4F4FC756B5
:10048800DF4F288339834A83C959D040E4CFCF57F7
:10049800DF4F88819981C158D04080FF07C08D7F88
:1004A800CF57DF4F99838883C158D040C756DF4F55
:1004B80088819981AA81C959D040FC012491A7FD5E
:1004C80020812E3209F058C0CD57DF4F198218828B
:1004D800C358D0409C014A2F2F5F3F4F4F4FC756FC
:1004E800DF4F288339834A83C959D040F901549191
:1004F80047FD50815A32D1F40296A11DC756DF4FED
:1005080088839983AA83C959D040D501ED91FC917C
:100518001197CF0102968D939C9380819181CD573D
:10052800DF4F99838883C358D04026C0842FB901F0
:100538000E944708CD57DF4F99838883C358D0401E
:10054800C756DF4F288139814A81C959D040F901FE
:10055800849147FD8081082E000C990BC0970A975B
:1005680058F42F5F3F4F4F4FC756DF4F28833983CB
:100578004A83C959D040E4CFCE0187569F4F0E9485
:10058800AF07182FC756DF4F2881C959D040C65624
:10059800DF4F8881CA59D040C556DF4F9881CB5963
:1005A800D040E22FF82F849197FD8081082E000C0F
:1005B800990B0E94280B8936910509F45AC0B4F4A6
:1005C8008336910509F466C144F48532910509F42E
:1005D800A1C18136910529F1B3C18436910509F489
:1005E80048C0883691050CF42DC1AAC18037910501
:1005F80009F4CBC04CF48E36910509F419C18F3635
:10060800910509F47CC09CC18537910509F454C053
:100618008837910509F496C08337910509F090C190
:1006280058C1612F70E0A501C6010E94EA09892B13
:1006380009F4B7C1C756DF4F88819981AA81C95982
:10064800D0409C014A2F2F5F3F4F4F4FC756DF4F77
:10065800288339834A83C959D040FC012491A7FDD6
:100668002081A601BE016F577F4FC4010E94390B3C
:1006780095C1612F70E0950141E050E0C6010E94EC
:10068800FD04892B09F48DC1C756DF4F88819981F4
:10069800AA81C959D0400196A11DC756DF4F88834A
:1006A8009983AA83C959D040A601BE016F577F4FCD
:1006B800C4010E94360B72C1612F70E0950140E0C1
:1006C80050E0C6010E94FD04892B09F46AC1C7568F
:1006D800DF4F88819981AA81C959D0400196A11D0F
:1006E800C756DF4F88839983AA83C959D040A6018A
:1006F800BE016F577F4FC4010E94360B4FC1612F57
:1007080070E0950140E050E0C6010E94FD04892B8D
:1007180009F447C1C756DF4F88819981AA81C95911
:10072800D0400196A11DC756DF4F88839983AA83BD
:10073800C959D040A601BE016F577F4FC4010E941E
:10074800360B2CC1612F70E0950140E050E0C601E6
:100758000E94FD04892B09F424C1C756DF4F888104
:100768009981AA81C959D0409C014A2F2F5F3F4FD8
:100778004F4FC756DF4F288339834A83C959D04022
:10078800FC012491A7FD20814BC0950140E050E079
:1007980060EF70E0C6010E94FD04892B09F401C1D5
:1007A800C756DF4F88819981AA81C959D0400196DF
:1007B800A11DC756DF4F88839983AA83C959D040A2
:1007C80086E021ED31E040E0F901DE01AD56BF4F92
:1007D800742F0E94CF0AD6012C9111963C91119743
:1007E80012964C91129713965C91139714966C91EC
:1007F800149715967C91159716968C9116971796BF
:100808009C91A0E00E94F40A51F400E010E0CF555A
:10081800DF4F288139814A81C15AD040B9C028E7C1
:10082800A601BE016F577F4FC4010E94390BB6C0A5
:10083800612F70E09501A1014E0D5F1DC6010E9458
:100848003D06AFC0612F70E0A501C6010E94EA090C
:10085800892B09F4A6C0C756DF4F88819981AA81E0
:10086800C959D0409C014A2F2F5F3F4F4F4FC75661
:10087800DF4F288339834A83C959D040FC0124912A
:10088800A7FD2081A601BE016F577F4FC4010E94BA
:10089800390B84C0103809F084C0C756DF4F8881EF
:1008A8009981AA81C959D0400196A11DC756DF4F29
:1008B80088839983AA83C959D040D501ED91FC91C9
:1008C8001197CF0102968D939C938081F6018083C6
:1008D8005BC0103809F065C0C756DF4F8881998121
:1008E800AA81C959D0400196A11DC756DF4F8883F8
:1008F8009983AA83C959D040D501ED91FC911197EC
:10090800CF0103968D939C9320813181428100E031
:1009180010E03EC0103809F044C0C756DF4F888148
:100928009981AA81C959D0400196A11DC756DF4FA8
:1009380088839983AA83C959D040F601708224C05C
:10094800D6017C92C256DF4F288139814A81CE591F
:10095800D040C756DF4F288339834A83C959D040CE
:10096800CF57DF4F19821882C158D040CB57DF4F7D
:1009780019821882C558D0408FEF9FEFCD57DF4FAF
:1009880099838883C358D04001E010E0462D920136
:10099800BE016F577F4FC4010E94A9068E0D9F1D8F
:1009A80011C0C756DF4F88819981AA81C959D040A3
:1009B8000196A11DC756DF4F88839983AA83C95919
:1009C800D040C7017101E80EF91EE214F3044CF49B
:1009D8008FE490E090930104809300048FEF9FEFE1
:1009E80003C0170121CCC101CD55DF4FE2E10C94C2
:0209F800260ACD
:1009FA000F931F93CF93DF93FC01D90168387105D8
:100A0A0031F194F461387105B1F12CF46038710553
:100A1A0009F478C09FC06238710509F459C0643876
:100A2A00710509F46FC096C0603A710509F448C0AF
:100A3A002CF46039710509F44BC08CC0603C710517
:100A4A0009F476C0603F710509F472C083C0CD9184
:100A5A00DC911197CE0102968D939C93452B39F028
:100A6A009881892F880F880B908381835BC0888146
:100A7A008083118268C0CD91DC911197CE010496D2
:100A8A008D939C93452B99F088819981AA81BB818A
:100A9A00AC01BD01770F440B542FBA0180839183B7
:100AAA00A283B383448345834683478328C008814E
:100ABA0019812A813B81008311832283338345C0B4
:100ACA00CD91DC911197CE0102968D939C9323C010
:100ADA00CD91DC911197CE0108968D939C937881E4
:100AEA0069815A814B813C812D819E818F817083DE
:100AFA00618352834383348325839683878381E08A
:100B0A0090E02AC0CD91DC911197CE0102968D9387
:100B1A009C93452BA1F099812881892F880F880BF6
:100B2A002083918382838383848385838683E6CF2C
:100B3A00CD91DC911197CE0102968D939C930881F9
:100B4A0019810083118312821382148215821682FC
:100B5A001782D5CF80E090E0DF91CF911F910F915E
:020B6A000895EC
:100B6C002F923F924F926F927F928F92AF92BF9241
:100B7C00CF92DF92EF92FF920F931F93CF93DF935D
:100B8C00CDB7DEB766970FB6F894DEBF0FBECDBFFC
:100B9C005C013A01862E6901C701817099279C8BF3
:100BAC008B8BE0FC1DC020173107D4F47801EC18B6
:100BBC00FD08FE8AED8AA70191E1E916F10410F017
:100BCC0040E150E060E270E0CE0101969A8B898B97
:100BDC000E941F0B89899A891C0120E8422E0BC0A8
:100BEC009601682DA301C5010E943D09C016D106CE
:100BFC00ECF2C60125C090E1E916F10458F020E1B1
:100C0C0030E0642DA101C5010E943D0980E1E81A84
:100C1C00F108F1CF2D893E892F70332789899A8964
:100C2C00AC0160E8C5010E943D098B899C89892B28
:100C3C0031F49601682DA301C5010E943D09C8013C
:100C4C0066960FB6F894DEBF0FBECDBFDF91CF9185
:100C5C001F910F91FF90EF90DF90CF90BF90AF90CE
:0E0C6C008F907F906F904F903F902F90089543
:100C7A00CF93DF93DC01F90164387105D9F164F48B
:100C8A006138710521F16238710509F440C0603894
:100C9A00710509F054C02EC060397105C1F184F4A0
:100CAA006838710509F04BC0C081D181CE01029626
:100CBA0091838083E881F981ED93FC9340833CC062
:100CCA00603A7105B9F0603C7105A1F038C0C08185
:100CDA00D181CE01029691838083E881F981ED93D7
:100CEA00FC93052E000C660B770B408351836283BD
:100CFA00738322C0C081D181CE0102969183808301
:100D0A00E881F981ED93FC935183408315C0C0813A
:100D1A00D181CE01029691838083E881F981ED9396
:100D2A00FC9351834083852F880F880B82838383AA
:100D3A00848385838683878381E090E002C080E094
:080D4A0090E0DF91CF910895C4
:100D52002F923F924F926F927F928F92AF92BF9259
:100D6200CF92DF92EF92FF920F931F93CF93DF9375
:100D7200CDB7DEB727970FB6F894DEBF0FBECDBF53
:100D82006C017B013901842E98018AEC282E81E0C6
:100D9200382E80E0482E87E0F101AE014F5F5F4FB1
:100DA200DA01742D0E94CF0AF70102811381A48017
:100DB200B580E080F18061147104810419F43A0174
:100DC200F0E88F2E2115310529F4882DB3010E94F8
:100DD200850A9C0117FD04C00217130708F4980145
:100DE2008501682DA301C6010E94B60527960FB69C
:100DF200F894DEBF0FBECDBFDF91CF911F910F914F
:100E0200FF90EF90DF90CF90BF90AF908F907F9048
:0A0E12006F904F903F902F900895CD
:100E1C006F927F928F92EF92FF920F931F93CF93CB
:100E2C00DF93CDB7DEB761970FB6F894DEBF0FBE78
:100E3C00CDBFFE01319651E1DF011D925A95E9F7C4
:100E4C00A2E0B1E0BA83A9839C838B8377FF09C0AE
:100E5C008FE490E090930104809300048FEF9FEF58
:100E6C0019C03901842E7C01615071097F836E8316
:100E7C009801682DA301CF010E94410A488559852C
:100E8C002E813F814217530708F49A01F701E20FB4
:100E9C00F31F108261960FB6F894DEBF0FBECDBF64
:100EAC00DF91CF911F910F91FF90EF908F907F90DA
:040EBC006F90089596
:100EC000CF93DF93EC01BC0180E80E94850A029772
:100ED00028F48881813310F0893330F06BE371E0BE
:100EE00080E00E946F0A38C0815390E0FC01EE0F51
:100EF000FF1FEF01C80FD91FCE010D2E000CAA0B4A
:100F000084569E4FAF4FFC015A2F0E94150B0E9432
:100F1000300BFE01EE5FFB4F82818F9381818F93B7
:100F200080818F9383E591E0A0E0AF939F938F93AF
:100F3000C0E0D3E0DF93CF930E949B0ABE0180E81C
:100F40000E946F0A10921F048DB79EB708960FB6C5
:0E0F5000F8949EBF0FBE8DBFDF91CF91089524
:100F5E00CF92DF92EF92DC0190E0292F30E0220F4A
:100F6E00331F6901032E000CEE086E2DA6014C54A2
:100F7E005E4F6F4F6A01E62EFA018491E7FC808185
:100F8E0081110DC02F5F3F4F032E000C440B2C54CC
:100F9E003E4F4F4FF901849147FD808124C0CD9083
:100FAE00DD90EC901297F6014491E7FC408184139A
:100FBE0015C02F5F3F4F032E000C440B2C543E4F99
:100FCE004F4FF901949147FD90815FEFC51AD50AF5
:100FDE00E50ACD92DD92EC92129701C09F5F9B3095
:0E0FEE0008F4BBCF892FEF90DF90CF900895CD
:100FFC000F931F93CF93DF93DB012D913C911197AE
:10100C0030FF25C017964D915C91189715962D9130
:10101C003C9116974217530778F41296ED91FC9178
:10102C001397808312962D913C9113972F5F3F4F0E
:10103C0013963C932E93129717962D913C911897DB
:10104C002F5F3F4F18963C932E93179715C01D9604
:10105C00ED91FC911E97309719F48FEF9FEF0CC018
:10106C008B01EC010995892BC1F7F80187819085DB
:10107C00019690878783CE01DF91CF911F910F91BD
:02108C000895C5
:10108E00CF939B01482FF901849147FD80818032D7
:10109E00C9F1682F082E000C770B69507109653065
:1010AE00710580F18B3249F5A0E0B0E02F5F3F4F24
:1010BE004F4F02C0A0E0B0E080E090E0CAE0F9013E
:1010CE00649147FD6081062E000C770B6053710909
:1010DE006A30710560F4C89FF001C99FF00D1124AC
:1010EE002F5F3F4F4F4FCF01861B970BE8CFAB2B98
:1010FE0069F491958195910909C08D32D9F6A1E0D7
:10110E00B0E0D4CF2F5F3F4F4F4FBDCFCF9108955B
:10111E001F920F920FB60F9211248F939F93EF93FE
:10112E00FF938091C600883011F08F3751F4909163
:10113E002004992331F08091200481508093200463
:10114E001EC08D3011F08A3061F4E0912004F0E081
:10115E00E050FF4F10821092200481E080931F0414
:10116E000EC0909120049F3F51F0E091200491E039
:10117E009E0F90932004F0E0E050FF4F8083FF918C
:10118E00EF919F918F910F900FBE0F901F9018951A
:10119E002091240430E02F5F3F4F307833232CF41E
:1011AE00215031093F6F2F5F3F4F90912304291734
:1011BE00E1F3E0912404F0E0E050FE4F80832093B1
:1011CE0024048091220481111CC081E080932204AA
:1011DE00E0912304F0E0E050FE4F80818093C60042
:1011EE008091230490E00196907899231CF4019746
:1011FE009F6F019680932304E1ECF0E08081806480
:04120E00808308953C
:101212001F920F920FB60F9211248F939F93EF9309
:10122200FF939091230480912404981308C0109294
:101232002204E1ECF0E080818F7B808314C0E09196
:101242002304F0E0E050FE4F80818093C60080913D
:10125200230490E00196907899231CF401979F6FE4
:10126200019680932304FF91EF919F918F910F90AC
:081272000FBE0F901F901895AC
:10127A006F927F928F92CF92DF92EF920F931F938A
:10128A00CF93DF938C016A01E62EE9013A01862E9B
:10129A00620E731E811C37FD8A94C614D704E804B3
:1012AA0079F0F6018491E7FC8081B801082E000CE0
:1012BA00990B0E94FE078FEFC81AD80AE80AEDCFE9
:1012CA00CE01DF91CF911F910F91EF90DF90CF90D8
:0812DA008F907F906F90089542
:1012E200CF92DF92EF92CF93DF93CDB7DEB7CD5699
:1012F200D1090FB6F894DEBF0FBECDBF0F2EFEECA4
:10130200CF2EF0E0DF2EF0E0EF2EF02D8DE6F6018D
:101312009E012F5F3F4FD9017E2D0E94CF0AB90156
:1013220080E80E946F0AC359DF4F0FB6F894DEBF00
:101332000FBECDBFDF91CF91EF90DF90CF90089598
:1013420087E60E94DC0A0E94590A0E940B0B2FEFCB
:1013520081EE94E0215080409040E1F700C000000F
:101362000E947109789480911F04882331F080E0F3
:1013720091E00E94600710921F040E94BF0A8093AE
:0C1382001E040E94C7090E94AE0AEDCFB5
:10138E002FEF30E0A901481B5109CA01EAE1F4E050
:10139E004281489F9001499F300D1124309389005E
:1013AE00209388004181489F9001499F300D112460
:1013BE0030938B0020938A009081989F802D11246A
:0613CE0080932104089544
:1013D400FA0160387105CCF0623871051CF063388D
:1013E400710599F4A081B1819D012C5F3F4F318338
:1013F40020834D915D916D917C91FC0140835183DB
:101404006283738381E090E0089580E090E0089522
:101414002F923F924F925F926F927F928F929F9200
:10142400AF92BF92CF92DF92EF92FF920F931F93EE
:10143400CF93DF93CDB7DEB7CA1BDB0B0FB6F8949F
:08144400DEBF0FBECDBF09940D
:10144C002A88398848885F846E847D848C849B8448
:10145C00AA84B984C884DF80EE80FD800C811B8156
:10146C00AA81B981CE0FD11D0FB6F894DEBF0FBE85
:06147C00CDBFED01089553
:10148200A2E0B0E0E7E4FAE00C94180A8C013A8397
:1014920029839E012F5F3F4F0E94EC00F8012081BB
:1014A20024FF02C08FEF9FEF2296E4E00C94340AEF
:1014B20087B1877F87B9EEE7F0E08081886080831B
:1014C200ECE7F0E0808183668083EAE7F0E08081E8
:0C14D20087688083808180648083089597
:1014DE00CF92DF92EF926B01E82E06C09FEFC91AF2
:1014EE00D90AE90A0E94CF08F6018491E7FC8081AF
:0C14FE008111F4CFEF90DF90CF900895A3
:10150A00CF92DF92EF926B01E82EA82FCB01FC015C
:10151A002491A7FD2081222319F00196A11DF7CF5E
:0C152A008C199D09EF90DF90CF90089580
:10153600A0E0B0E0E1EAFAE00C941A0A9E01265F08
:101546003F4F4F81588569858D819E810E94E80AAB
:06155600E2E00C94360AED
:10155C0020918400309185008091210490E08217C5
:10156C00930718F485B18F7D02C085B1806285B96F
:02157C000895D0
:10157E0080917A0084FFFCCF8091790080931D04C6
:10158E00EAE7F0E080818064808380911D040895F5
:10159E00992777FD05C005900D920197E1F7089503
:0A15AE0001900D920197E1F70895F6
:1015B800E1ECF0E0108296E09093C2008093C400C2
:0815C800808188698083089589
:1015D0000F931F9389019A01462F6FEF7FE70E94B7
:0815E0000E071F910F91089501
:1015E8000024A7FD00942A17300540055005600522
:0815F8007005800590050895BF
:10160000EC010E94410B0E94400BCE010E94420B54
:06161000CE010E943E0B1A
:1016160081EA809380008CE08093810084B18662A9
:0416260084B90895E6
:10162A0057FD04C0659175918591089561917191F5
:04163A0081910895FD
:10163E00FC01480F591FE417F50711F06193FBCF1A
:02164E000895FD
:101650009C01215431092A31310508F48062089532
:0C166000EAE1F4E0608371838283089566
:06166C0080E090E008950B
:0616720080E090E0089505
:041678000C940000CE
:04167C000E94650063
:021680000895CB
:021682000895C9
:021684000895C7
:101686006901006E01007401007901007E01008786
:0816960001008F010096010024
:00000001FF
